{
  "contractName": "RPSContract",
  "abi": [
    {
      "constant": true,
      "inputs": [],
      "name": "thisGame",
      "outputs": [
        {
          "name": "id",
          "type": "uint256"
        },
        {
          "name": "playerName",
          "type": "bytes32"
        },
        {
          "name": "humanWin",
          "type": "bool"
        },
        {
          "name": "winCount",
          "type": "uint256"
        },
        {
          "name": "etherWon",
          "type": "uint256"
        }
      ],
      "payable": false,
      "stateMutability": "view",
      "type": "function"
    },
    {
      "constant": true,
      "inputs": [
        {
          "name": "",
          "type": "uint256"
        }
      ],
      "name": "allGames",
      "outputs": [
        {
          "name": "id",
          "type": "uint256"
        },
        {
          "name": "playerName",
          "type": "bytes32"
        },
        {
          "name": "humanWin",
          "type": "bool"
        },
        {
          "name": "winCount",
          "type": "uint256"
        },
        {
          "name": "etherWon",
          "type": "uint256"
        }
      ],
      "payable": false,
      "stateMutability": "view",
      "type": "function"
    },
    {
      "constant": false,
      "inputs": [
        {
          "name": "_id",
          "type": "uint256"
        },
        {
          "name": "_playerName",
          "type": "bytes32"
        },
        {
          "name": "_humanWin",
          "type": "bool"
        },
        {
          "name": "_winCount",
          "type": "uint256"
        },
        {
          "name": "_etherWon",
          "type": "uint256"
        }
      ],
      "name": "addGame",
      "outputs": [
        {
          "name": "success",
          "type": "bool"
        }
      ],
      "payable": false,
      "stateMutability": "nonpayable",
      "type": "function"
    },
    {
      "constant": true,
      "inputs": [],
      "name": "getAllGames",
      "outputs": [
        {
          "name": "",
          "type": "bytes32[]"
        },
        {
          "name": "",
          "type": "uint256[]"
        }
      ],
      "payable": false,
      "stateMutability": "view",
      "type": "function"
    },
    {
      "constant": false,
      "inputs": [
        {
          "name": "didHumanWin",
          "type": "bool"
        },
        {
          "name": "etherWon",
          "type": "uint256"
        }
      ],
      "name": "gameResult",
      "outputs": [],
      "payable": false,
      "stateMutability": "nonpayable",
      "type": "function"
    },
    {
      "constant": true,
      "inputs": [],
      "name": "getWinCount",
      "outputs": [
        {
          "name": "",
          "type": "uint256"
        }
      ],
      "payable": false,
      "stateMutability": "view",
      "type": "function"
    }
  ],
  "bytecode": "0x608060405234801561001057600080fd5b50610626806100206000396000f300608060405260043610610077576000357c0100000000000000000000000000000000000000000000000000000000900463ffffffff168062f171021461007c57806326b8b218146100cf5780634b8ec50f14610142578063a0b550951461016d578063db1c45f9146101d6578063ff8ce44e1461028a575b600080fd5b34801561008857600080fd5b506100916102c3565b604051808681526020018560001916600019168152602001841515151581526020018381526020018281526020019550505050505060405180910390f35b3480156100db57600080fd5b5061012860048036038101908080359060200190929190803560001916906020019092919080351515906020019092919080359060200190929190803590602001909291905050506102f4565b604051808215151515815260200191505060405180910390f35b34801561014e57600080fd5b506101576103cd565b6040518082815260200191505060405180910390f35b34801561017957600080fd5b50610198600480360381019080803590602001909291905050506103da565b604051808681526020018560001916600019168152602001841515151581526020018381526020018281526020019550505050505060405180910390f35b3480156101e257600080fd5b506101eb61042c565b604051808060200180602001838103835285818151815260200191508051906020019060200280838360005b83811015610232578082015181840152602081019050610217565b50505050905001838103825284818151815260200191508051906020019060200280838360005b83811015610274578082015181840152602081019050610259565b5050505090500194505050505060405180910390f35b34801561029657600080fd5b506102c16004803603810190808035151590602001909291908035906020019092919050505061059a565b005b60018060000154908060010154908060020160009054906101000a900460ff16908060030154908060040154905085565b60006102fe6105c5565b86816000018181525050858160200190600019169081600019168152505084816040019015159081151581525050838160600181815250508281608001818152505060068190806001815401808255809150509060018203906000526020600020906005020160009091929091909150600082015181600001556020820151816001019060001916905560408201518160020160006101000a81548160ff0219169083151502179055506060820151816003015560808201518160040155505050600191505095945050505050565b6000600160030154905090565b6006818154811015156103e957fe5b90600052602060002090600502016000915090508060000154908060010154908060020160009054906101000a900460ff16908060030154908060040154905085565b6060806000606080600061043e6105c5565b6006805490509450846040519080825280602002602001820160405280156104755781602001602082028038833980820191505090505b509350846040519080825280602002602001820160405280156104a75781602001602082028038833980820191505090505b509250600091505b60068054905082101561058b576006828154811015156104cb57fe5b906000526020600020906005020160a06040519081016040529081600082015481526020016001820154600019166000191681526020016002820160009054906101000a900460ff161515151581526020016003820154815260200160048201548152505090508060200151848381518110151561054557fe5b9060200190602002019060001916908160001916815250508060600151838381518110151561057057fe5b906020019060200201818152505081806001019250506104af565b83839650965050505050509091565b81600160020160006101000a81548160ff021916908315150217905550806001600401819055505050565b60a0604051908101604052806000815260200160008019168152602001600015158152602001600081526020016000815250905600a165627a7a72305820c4a6f783ff0c1d4a1d80098a4426eef754c1305da903f58d7a960d34ad07e9d60029",
  "source": "pragma solidity ^0.4.2;\r\n\r\ncontract RPSContract {\r\n    // Store etherem amount that we will bet with.\r\n    // Store total ether used in vote.\r\n    // Current Wins in a row!\r\n    \r\n    address creator;\r\n    \r\n    //Game[] public allGames;\r\n\r\n    struct Game {\r\n        uint id;\r\n        bytes32 playerName;\r\n        bool humanWin;\r\n        uint winCount;\r\n        uint etherWon;\r\n        \r\n    }\r\n\r\n    Game public thisGame;\r\n    \r\n    Game[] public allGames;\r\n\r\n\r\n    function addGame(uint _id, bytes32 _playerName, bool _humanWin, uint _winCount, uint _etherWon ) public returns (bool success)\r\n    {\r\n        //This adds a game to the AllGames Array.\r\n\r\n        Game memory newGame;\r\n        newGame.id = _id;\r\n        newGame.playerName = _playerName;\r\n        newGame.humanWin = _humanWin;\r\n        newGame.winCount = _winCount;\r\n        newGame.etherWon = _etherWon;\r\n        allGames.push(newGame);\r\n        return true;\r\n\r\n    }\r\n    \r\n    function getAllGames() constant public returns (bytes32[], uint[])\r\n    {\r\n        uint length = allGames.length;\r\n\r\n        bytes32[] memory allNames = new bytes32[](length);\r\n        uint[] memory allWinCount = new uint[](length);\r\n\r\n        for (uint i = 0 ; i < allGames.length; i ++)\r\n        {\r\n            Game memory currentGame;\r\n            currentGame = allGames[i];\r\n            allNames[i] = currentGame.playerName;\r\n            allWinCount[i] = currentGame.winCount;\r\n        }\r\n\r\n        return (allNames, allWinCount);\r\n    }\r\n\r\n    function gameResult( bool didHumanWin, uint etherWon) public \r\n    {\r\n        thisGame.humanWin = didHumanWin;\r\n        thisGame.etherWon = etherWon;\r\n    }\r\n    \r\n    function getWinCount() constant public returns (uint)\r\n    {\r\n        return thisGame.winCount;\r\n    }\r\n\r\n    ///This counts the number of times the human won in a row\r\n    function humanWin() private{\r\n        thisGame.winCount ++;\r\n    }\r\n\r\n}",
  "sourcePath": "C:\\Users\\aracid\\Documents\\Programming\\rock-paper-sizz\\contracts\\RPSContract.sol",
  "compiler": {
    "name": "solc",
    "version": "0.4.23+commit.124ca40d.Emscripten.clang"
  },
  "schemaVersion": "2.0.0",
  "updatedAt": "2018-04-27T05:59:10.093Z"
}