{
  "contractName": "RPSContract",
  "abi": [
    {
      "constant": true,
      "inputs": [
        {
          "name": "",
          "type": "uint256"
        }
      ],
      "name": "players",
      "outputs": [
        {
          "name": "",
          "type": "address"
        }
      ],
      "payable": false,
      "stateMutability": "view",
      "type": "function"
    },
    {
      "constant": true,
      "inputs": [],
      "name": "getPlayers",
      "outputs": [
        {
          "name": "",
          "type": "address[16]"
        }
      ],
      "payable": false,
      "stateMutability": "view",
      "type": "function"
    }
  ],
  "bytecode": "0x608060405234801561001057600080fd5b50610217806100206000396000f30060806040526004361061004c576000357c0100000000000000000000000000000000000000000000000000000000900463ffffffff1680638b5b9ccc14610051578063f71d96cb146100a4575b600080fd5b34801561005d57600080fd5b50610066610111565b6040518082601060200280838360005b83811015610091578082015181840152602081019050610076565b5050505090500191505060405180910390f35b3480156100b057600080fd5b506100cf60048036038101908080359060200190929190505050610192565b604051808273ffffffffffffffffffffffffffffffffffffffff1673ffffffffffffffffffffffffffffffffffffffff16815260200191505060405180910390f35b6101196101c7565b6000601080602002604051908101604052809291908260108015610188576020028201915b8160009054906101000a900473ffffffffffffffffffffffffffffffffffffffff1673ffffffffffffffffffffffffffffffffffffffff168152602001906001019080831161013e575b5050505050905090565b6000816010811015156101a157fe5b016000915054906101000a900473ffffffffffffffffffffffffffffffffffffffff1681565b610200604051908101604052806010906020820280388339808201915050905050905600a165627a7a723058209b4a1fcce9251a8c683fe1f01c5433bb8e9be4d7fd5ef796d714d49c91a8528c0029",
  "source": "pragma solidity ^0.4.17;\r\n\r\ncontract RPSContract {\r\n    address[16] public players;\r\n    \r\n\r\n    // Retrieving the players\r\n    function getPlayers() public view returns (address[16]) {\r\n        return players;\r\n    }\r\n\r\n}",
  "sourcePath": "C:\\Users\\aracid\\Documents\\Programming\\rock-paper-sizz\\contracts\\RPSContract.sol",
  "compiler": {
    "name": "solc",
    "version": "0.4.23+commit.124ca40d.Emscripten.clang"
  },
  "schemaVersion": "2.0.0",
  "updatedAt": "2018-04-26T03:31:08.832Z"
}